{
  "_format": "hh-sol-artifact-1",
  "contractName": "InvoiceSigner",
  "sourceName": "contracts/Invoice.sol",
  "abi": [
    {
      "inputs": [
        {
          "internalType": "address",
          "name": "_signerAddress",
          "type": "address"
        },
        {
          "internalType": "address",
          "name": "_voiceContractAddress",
          "type": "address"
        }
      ],
      "stateMutability": "nonpayable",
      "type": "constructor"
    },
    {
      "anonymous": false,
      "inputs": [
        {
          "indexed": false,
          "internalType": "string",
          "name": "oldStr",
          "type": "string"
        },
        {
          "indexed": false,
          "internalType": "string",
          "name": "newStr",
          "type": "string"
        }
      ],
      "name": "UpdatedResourceUrl",
      "type": "event"
    },
    {
      "inputs": [
        {
          "internalType": "uint256",
          "name": "invoiceId",
          "type": "uint256"
        }
      ],
      "name": "findInvoiceById",
      "outputs": [
        {
          "internalType": "uint256",
          "name": "invoiceNo",
          "type": "uint256"
        },
        {
          "internalType": "uint256",
          "name": "invoiceDate",
          "type": "uint256"
        },
        {
          "internalType": "uint256",
          "name": "invoiceTotal",
          "type": "uint256"
        },
        {
          "internalType": "uint256",
          "name": "timestamp",
          "type": "uint256"
        },
        {
          "internalType": "string",
          "name": "cId",
          "type": "string"
        },
        {
          "internalType": "address",
          "name": "userAddress",
          "type": "address"
        },
        {
          "internalType": "string",
          "name": "signedMessage",
          "type": "string"
        }
      ],
      "stateMutability": "view",
      "type": "function"
    },
    {
      "inputs": [],
      "name": "getSigner",
      "outputs": [
        {
          "internalType": "address",
          "name": "",
          "type": "address"
        }
      ],
      "stateMutability": "view",
      "type": "function"
    },
    {
      "inputs": [
        {
          "internalType": "uint256",
          "name": "invoiceNo",
          "type": "uint256"
        },
        {
          "internalType": "uint256",
          "name": "invoiceDate",
          "type": "uint256"
        },
        {
          "internalType": "uint256",
          "name": "invoiceTotal",
          "type": "uint256"
        },
        {
          "internalType": "address",
          "name": "userAddress",
          "type": "address"
        },
        {
          "internalType": "string",
          "name": "cId",
          "type": "string"
        },
        {
          "internalType": "string",
          "name": "signedMessage",
          "type": "string"
        }
      ],
      "name": "invoiceConfirm",
      "outputs": [],
      "stateMutability": "nonpayable",
      "type": "function"
    },
    {
      "inputs": [
        {
          "internalType": "address",
          "name": "",
          "type": "address"
        },
        {
          "internalType": "address",
          "name": "",
          "type": "address"
        },
        {
          "internalType": "uint256",
          "name": "",
          "type": "uint256"
        },
        {
          "internalType": "bytes",
          "name": "",
          "type": "bytes"
        }
      ],
      "name": "onERC721Received",
      "outputs": [
        {
          "internalType": "bytes4",
          "name": "",
          "type": "bytes4"
        }
      ],
      "stateMutability": "pure",
      "type": "function"
    },
    {
      "inputs": [],
      "name": "signerAddress",
      "outputs": [
        {
          "internalType": "address",
          "name": "",
          "type": "address"
        }
      ],
      "stateMutability": "view",
      "type": "function"
    },
    {
      "inputs": [],
      "name": "voiceContractAddress",
      "outputs": [
        {
          "internalType": "address",
          "name": "",
          "type": "address"
        }
      ],
      "stateMutability": "view",
      "type": "function"
    }
  ],
  "bytecode": "0x608060405260016002553480156200001657600080fd5b506040516200115d3803806200115d83398181016040528101906200003c91906200012f565b81600360006101000a81548173ffffffffffffffffffffffffffffffffffffffff021916908373ffffffffffffffffffffffffffffffffffffffff160217905550806000806101000a81548173ffffffffffffffffffffffffffffffffffffffff021916908373ffffffffffffffffffffffffffffffffffffffff160217905550505062000176565b600080fd5b600073ffffffffffffffffffffffffffffffffffffffff82169050919050565b6000620000f782620000ca565b9050919050565b6200010981620000ea565b81146200011557600080fd5b50565b6000815190506200012981620000fe565b92915050565b60008060408385031215620001495762000148620000c5565b5b6000620001598582860162000118565b92505060206200016c8582860162000118565b9150509250929050565b610fd780620001866000396000f3fe608060405234801561001057600080fd5b50600436106100625760003560e01c8063150b7a02146100675780635b7633d0146100975780636b26f703146100b55780637ac3c02f146100d3578063a3450c65146100f1578063d9cf6d731461010d575b600080fd5b610081600480360381019061007c9190610910565b610143565b60405161008e91906109d3565b60405180910390f35b61009f610158565b6040516100ac91906109fd565b60405180910390f35b6100bd61017e565b6040516100ca91906109fd565b60405180910390f35b6100db6101a2565b6040516100e891906109fd565b60405180910390f35b61010b60048036038101906101069190610b59565b6101cc565b005b61012760048036038101906101229190610c1e565b6104fc565b60405161013a9796959493929190610ce2565b60405180910390f35b600063150b7a0260e01b905095945050505050565b600360009054906101000a900473ffffffffffffffffffffffffffffffffffffffff1681565b60008054906101000a900473ffffffffffffffffffffffffffffffffffffffff1681565b6000600360009054906101000a900473ffffffffffffffffffffffffffffffffffffffff16905090565b60008060009054906101000a900473ffffffffffffffffffffffffffffffffffffffff1690503073ffffffffffffffffffffffffffffffffffffffff16635b7633d06040518163ffffffff1660e01b815260040160206040518083038186803b15801561023857600080fd5b505afa15801561024c573d6000803e3d6000fd5b505050506040513d601f19601f820116820180604052508101906102709190610d74565b73ffffffffffffffffffffffffffffffffffffffff163373ffffffffffffffffffffffffffffffffffffffff16146102dd576040517f08c379a00000000000000000000000000000000000000000000000000000000081526004016102d490610e13565b60405180910390fd5b6000600260008154809291906102f290610e62565b9190505590506040518061010001604052808981526020018881526020018781526020014281526020013373ffffffffffffffffffffffffffffffffffffffff1681526020018581526020018673ffffffffffffffffffffffffffffffffffffffff16815260200184815250600160008381526020019081526020016000206000820151816000015560208201518160010155604082015181600201556060820151816003015560808201518160040160006101000a81548173ffffffffffffffffffffffffffffffffffffffff021916908373ffffffffffffffffffffffffffffffffffffffff16021790555060a08201518160050190805190602001906103fc929190610760565b5060c08201518160060160006101000a81548173ffffffffffffffffffffffffffffffffffffffff021916908373ffffffffffffffffffffffffffffffffffffffff16021790555060e0820151816007019080519060200190610460929190610760565b509050508173ffffffffffffffffffffffffffffffffffffffff16631c8b45c385876040518363ffffffff1660e01b815260040161049f929190610eab565b602060405180830381600087803b1580156104b957600080fd5b505af11580156104cd573d6000803e3d6000fd5b505050506040513d601f19601f820116820180604052508101906104f19190610f13565b505050505050505050565b6000806000806060600060606000600160008a815260200190815260200160002060405180610100016040529081600082015481526020016001820154815260200160028201548152602001600382015481526020016004820160009054906101000a900473ffffffffffffffffffffffffffffffffffffffff1673ffffffffffffffffffffffffffffffffffffffff1673ffffffffffffffffffffffffffffffffffffffff1681526020016005820180546105b790610f6f565b80601f01602080910402602001604051908101604052809291908181526020018280546105e390610f6f565b80156106305780601f1061060557610100808354040283529160200191610630565b820191906000526020600020905b81548152906001019060200180831161061357829003601f168201915b505050505081526020016006820160009054906101000a900473ffffffffffffffffffffffffffffffffffffffff1673ffffffffffffffffffffffffffffffffffffffff1673ffffffffffffffffffffffffffffffffffffffff16815260200160078201805461069f90610f6f565b80601f01602080910402602001604051908101604052809291908181526020018280546106cb90610f6f565b80156107185780601f106106ed57610100808354040283529160200191610718565b820191906000526020600020905b8154815290600101906020018083116106fb57829003601f168201915b505050505081525050905080600001518160200151826040015183606001518460a001518560c001518660e00151975097509750975097509750975050919395979092949650565b82805461076c90610f6f565b90600052602060002090601f01602090048101928261078e57600085556107d5565b82601f106107a757805160ff19168380011785556107d5565b828001600101855582156107d5579182015b828111156107d45782518255916020019190600101906107b9565b5b5090506107e291906107e6565b5090565b5b808211156107ff5760008160009055506001016107e7565b5090565b6000604051905090565b600080fd5b600080fd5b600073ffffffffffffffffffffffffffffffffffffffff82169050919050565b600061084282610817565b9050919050565b61085281610837565b811461085d57600080fd5b50565b60008135905061086f81610849565b92915050565b6000819050919050565b61088881610875565b811461089357600080fd5b50565b6000813590506108a58161087f565b92915050565b600080fd5b600080fd5b600080fd5b60008083601f8401126108d0576108cf6108ab565b5b8235905067ffffffffffffffff8111156108ed576108ec6108b0565b5b602083019150836001820283011115610909576109086108b5565b5b9250929050565b60008060008060006080868803121561092c5761092b61080d565b5b600061093a88828901610860565b955050602061094b88828901610860565b945050604061095c88828901610896565b935050606086013567ffffffffffffffff81111561097d5761097c610812565b5b610989888289016108ba565b92509250509295509295909350565b60007fffffffff0000000000000000000000000000000000000000000000000000000082169050919050565b6109cd81610998565b82525050565b60006020820190506109e860008301846109c4565b92915050565b6109f781610837565b82525050565b6000602082019050610a1260008301846109ee565b92915050565b600080fd5b6000601f19601f8301169050919050565b7f4e487b7100000000000000000000000000000000000000000000000000000000600052604160045260246000fd5b610a6682610a1d565b810181811067ffffffffffffffff82111715610a8557610a84610a2e565b5b80604052505050565b6000610a98610803565b9050610aa48282610a5d565b919050565b600067ffffffffffffffff821115610ac457610ac3610a2e565b5b610acd82610a1d565b9050602081019050919050565b82818337600083830152505050565b6000610afc610af784610aa9565b610a8e565b905082815260208101848484011115610b1857610b17610a18565b5b610b23848285610ada565b509392505050565b600082601f830112610b4057610b3f6108ab565b5b8135610b50848260208601610ae9565b91505092915050565b60008060008060008060c08789031215610b7657610b7561080d565b5b6000610b8489828a01610896565b9650506020610b9589828a01610896565b9550506040610ba689828a01610896565b9450506060610bb789828a01610860565b935050608087013567ffffffffffffffff811115610bd857610bd7610812565b5b610be489828a01610b2b565b92505060a087013567ffffffffffffffff811115610c0557610c04610812565b5b610c1189828a01610b2b565b9150509295509295509295565b600060208284031215610c3457610c3361080d565b5b6000610c4284828501610896565b91505092915050565b610c5481610875565b82525050565b600081519050919050565b600082825260208201905092915050565b60005b83811015610c94578082015181840152602081019050610c79565b83811115610ca3576000848401525b50505050565b6000610cb482610c5a565b610cbe8185610c65565b9350610cce818560208601610c76565b610cd781610a1d565b840191505092915050565b600060e082019050610cf7600083018a610c4b565b610d046020830189610c4b565b610d116040830188610c4b565b610d1e6060830187610c4b565b8181036080830152610d308186610ca9565b9050610d3f60a08301856109ee565b81810360c0830152610d518184610ca9565b905098975050505050505050565b600081519050610d6e81610849565b92915050565b600060208284031215610d8a57610d8961080d565b5b6000610d9884828501610d5f565b91505092915050565b7f4f6e6c79207468652064657369676e61746564207369676e65722063616e206360008201527f616c6c20746865207369676e657220636f6e7472616374000000000000000000602082015250565b6000610dfd603783610c65565b9150610e0882610da1565b604082019050919050565b60006020820190508181036000830152610e2c81610df0565b9050919050565b7f4e487b7100000000000000000000000000000000000000000000000000000000600052601160045260246000fd5b6000610e6d82610875565b91507fffffffffffffffffffffffffffffffffffffffffffffffffffffffffffffffff821415610ea057610e9f610e33565b5b600182019050919050565b60006040820190508181036000830152610ec58185610ca9565b9050610ed460208301846109ee565b9392505050565b60008115159050919050565b610ef081610edb565b8114610efb57600080fd5b50565b600081519050610f0d81610ee7565b92915050565b600060208284031215610f2957610f2861080d565b5b6000610f3784828501610efe565b91505092915050565b7f4e487b7100000000000000000000000000000000000000000000000000000000600052602260045260246000fd5b60006002820490506001821680610f8757607f821691505b60208210811415610f9b57610f9a610f40565b5b5091905056fea26469706673582212208087f29b5420103d870b98f067aea27cce57ff47b5d4bb55ab6b7dec58d96a6a64736f6c63430008090033",
  "linkReferences": {},
  "deployedLinkReferences": {}
}