{
  "_format": "hh-sol-artifact-1",
  "contractName": "VoiceToken",
  "sourceName": "contracts/Invoice.sol",
  "abi": [
    {
      "inputs": [
        {
          "internalType": "string",
          "name": "_name",
          "type": "string"
        },
        {
          "internalType": "string",
          "name": "_symbol",
          "type": "string"
        }
      ],
      "stateMutability": "nonpayable",
      "type": "constructor"
    },
    {
      "anonymous": false,
      "inputs": [
        {
          "indexed": true,
          "internalType": "address",
          "name": "owner",
          "type": "address"
        },
        {
          "indexed": true,
          "internalType": "address",
          "name": "approved",
          "type": "address"
        },
        {
          "indexed": true,
          "internalType": "uint256",
          "name": "tokenId",
          "type": "uint256"
        }
      ],
      "name": "Approval",
      "type": "event"
    },
    {
      "anonymous": false,
      "inputs": [
        {
          "indexed": true,
          "internalType": "address",
          "name": "owner",
          "type": "address"
        },
        {
          "indexed": true,
          "internalType": "address",
          "name": "operator",
          "type": "address"
        },
        {
          "indexed": false,
          "internalType": "bool",
          "name": "approved",
          "type": "bool"
        }
      ],
      "name": "ApprovalForAll",
      "type": "event"
    },
    {
      "anonymous": false,
      "inputs": [
        {
          "indexed": true,
          "internalType": "address",
          "name": "previousOwner",
          "type": "address"
        },
        {
          "indexed": true,
          "internalType": "address",
          "name": "newOwner",
          "type": "address"
        }
      ],
      "name": "OwnershipTransferred",
      "type": "event"
    },
    {
      "anonymous": false,
      "inputs": [
        {
          "indexed": true,
          "internalType": "address",
          "name": "from",
          "type": "address"
        },
        {
          "indexed": true,
          "internalType": "address",
          "name": "to",
          "type": "address"
        },
        {
          "indexed": true,
          "internalType": "uint256",
          "name": "tokenId",
          "type": "uint256"
        }
      ],
      "name": "Transfer",
      "type": "event"
    },
    {
      "inputs": [
        {
          "internalType": "address",
          "name": "to",
          "type": "address"
        },
        {
          "internalType": "uint256",
          "name": "tokenId",
          "type": "uint256"
        }
      ],
      "name": "approve",
      "outputs": [],
      "stateMutability": "nonpayable",
      "type": "function"
    },
    {
      "inputs": [
        {
          "internalType": "address",
          "name": "owner",
          "type": "address"
        }
      ],
      "name": "balanceOf",
      "outputs": [
        {
          "internalType": "uint256",
          "name": "",
          "type": "uint256"
        }
      ],
      "stateMutability": "view",
      "type": "function"
    },
    {
      "inputs": [
        {
          "internalType": "uint256",
          "name": "tokenId",
          "type": "uint256"
        }
      ],
      "name": "burn",
      "outputs": [
        {
          "internalType": "bool",
          "name": "",
          "type": "bool"
        }
      ],
      "stateMutability": "nonpayable",
      "type": "function"
    },
    {
      "inputs": [
        {
          "internalType": "uint256",
          "name": "tokenId",
          "type": "uint256"
        }
      ],
      "name": "getApproved",
      "outputs": [
        {
          "internalType": "address",
          "name": "",
          "type": "address"
        }
      ],
      "stateMutability": "view",
      "type": "function"
    },
    {
      "inputs": [
        {
          "internalType": "address",
          "name": "owner",
          "type": "address"
        },
        {
          "internalType": "address",
          "name": "operator",
          "type": "address"
        }
      ],
      "name": "isApprovedForAll",
      "outputs": [
        {
          "internalType": "bool",
          "name": "",
          "type": "bool"
        }
      ],
      "stateMutability": "view",
      "type": "function"
    },
    {
      "inputs": [
        {
          "internalType": "string",
          "name": "ipfsHash",
          "type": "string"
        },
        {
          "internalType": "address",
          "name": "userAddress",
          "type": "address"
        }
      ],
      "name": "mintNft",
      "outputs": [
        {
          "internalType": "bool",
          "name": "",
          "type": "bool"
        }
      ],
      "stateMutability": "nonpayable",
      "type": "function"
    },
    {
      "inputs": [],
      "name": "name",
      "outputs": [
        {
          "internalType": "string",
          "name": "",
          "type": "string"
        }
      ],
      "stateMutability": "view",
      "type": "function"
    },
    {
      "inputs": [],
      "name": "owner",
      "outputs": [
        {
          "internalType": "address",
          "name": "",
          "type": "address"
        }
      ],
      "stateMutability": "view",
      "type": "function"
    },
    {
      "inputs": [
        {
          "internalType": "uint256",
          "name": "tokenId",
          "type": "uint256"
        }
      ],
      "name": "ownerOf",
      "outputs": [
        {
          "internalType": "address",
          "name": "",
          "type": "address"
        }
      ],
      "stateMutability": "view",
      "type": "function"
    },
    {
      "inputs": [],
      "name": "renounceOwnership",
      "outputs": [],
      "stateMutability": "nonpayable",
      "type": "function"
    },
    {
      "inputs": [
        {
          "internalType": "address",
          "name": "from",
          "type": "address"
        },
        {
          "internalType": "address",
          "name": "to",
          "type": "address"
        },
        {
          "internalType": "uint256",
          "name": "tokenId",
          "type": "uint256"
        }
      ],
      "name": "safeTransferFrom",
      "outputs": [],
      "stateMutability": "nonpayable",
      "type": "function"
    },
    {
      "inputs": [
        {
          "internalType": "address",
          "name": "from",
          "type": "address"
        },
        {
          "internalType": "address",
          "name": "to",
          "type": "address"
        },
        {
          "internalType": "uint256",
          "name": "tokenId",
          "type": "uint256"
        },
        {
          "internalType": "bytes",
          "name": "data",
          "type": "bytes"
        }
      ],
      "name": "safeTransferFrom",
      "outputs": [],
      "stateMutability": "nonpayable",
      "type": "function"
    },
    {
      "inputs": [
        {
          "internalType": "address",
          "name": "operator",
          "type": "address"
        },
        {
          "internalType": "bool",
          "name": "approved",
          "type": "bool"
        }
      ],
      "name": "setApprovalForAll",
      "outputs": [],
      "stateMutability": "nonpayable",
      "type": "function"
    },
    {
      "inputs": [
        {
          "internalType": "bytes4",
          "name": "interfaceId",
          "type": "bytes4"
        }
      ],
      "name": "supportsInterface",
      "outputs": [
        {
          "internalType": "bool",
          "name": "",
          "type": "bool"
        }
      ],
      "stateMutability": "view",
      "type": "function"
    },
    {
      "inputs": [],
      "name": "symbol",
      "outputs": [
        {
          "internalType": "string",
          "name": "",
          "type": "string"
        }
      ],
      "stateMutability": "view",
      "type": "function"
    },
    {
      "inputs": [
        {
          "internalType": "uint256",
          "name": "tokenId",
          "type": "uint256"
        }
      ],
      "name": "tokenURI",
      "outputs": [
        {
          "internalType": "string",
          "name": "",
          "type": "string"
        }
      ],
      "stateMutability": "view",
      "type": "function"
    },
    {
      "inputs": [],
      "name": "totalSupply",
      "outputs": [
        {
          "internalType": "uint256",
          "name": "",
          "type": "uint256"
        }
      ],
      "stateMutability": "view",
      "type": "function"
    },
    {
      "inputs": [
        {
          "internalType": "address",
          "name": "_to",
          "type": "address"
        },
        {
          "internalType": "uint256",
          "name": "_tokenId",
          "type": "uint256"
        }
      ],
      "name": "transfer",
      "outputs": [],
      "stateMutability": "nonpayable",
      "type": "function"
    },
    {
      "inputs": [
        {
          "internalType": "address",
          "name": "from",
          "type": "address"
        },
        {
          "internalType": "address",
          "name": "to",
          "type": "address"
        },
        {
          "internalType": "uint256",
          "name": "tokenId",
          "type": "uint256"
        }
      ],
      "name": "transferFrom",
      "outputs": [],
      "stateMutability": "nonpayable",
      "type": "function"
    },
    {
      "inputs": [
        {
          "internalType": "address",
          "name": "newOwner",
          "type": "address"
        }
      ],
      "name": "transferOwnership",
      "outputs": [],
      "stateMutability": "nonpayable",
      "type": "function"
    }
  ],
  "bytecode": "0x60806040523480156200001157600080fd5b50604051620033f1380380620033f18339818101604052810190620000379190620003b0565b818181600090805190602001906200005192919062000163565b5080600190805190602001906200006a92919062000163565b5050506200008d620000816200009560201b60201c565b6200009d60201b60201c565b50506200049a565b600033905090565b6000600660009054906101000a900473ffffffffffffffffffffffffffffffffffffffff16905081600660006101000a81548173ffffffffffffffffffffffffffffffffffffffff021916908373ffffffffffffffffffffffffffffffffffffffff1602179055508173ffffffffffffffffffffffffffffffffffffffff168173ffffffffffffffffffffffffffffffffffffffff167f8be0079c531659141344cd1fd0a4f28419497f9722a3daafe3b4186f6b6457e060405160405180910390a35050565b828054620001719062000464565b90600052602060002090601f016020900481019282620001955760008555620001e1565b82601f10620001b057805160ff1916838001178555620001e1565b82800160010185558215620001e1579182015b82811115620001e0578251825591602001919060010190620001c3565b5b509050620001f09190620001f4565b5090565b5b808211156200020f576000816000905550600101620001f5565b5090565b6000604051905090565b600080fd5b600080fd5b600080fd5b600080fd5b6000601f19601f8301169050919050565b7f4e487b7100000000000000000000000000000000000000000000000000000000600052604160045260246000fd5b6200027c8262000231565b810181811067ffffffffffffffff821117156200029e576200029d62000242565b5b80604052505050565b6000620002b362000213565b9050620002c1828262000271565b919050565b600067ffffffffffffffff821115620002e457620002e362000242565b5b620002ef8262000231565b9050602081019050919050565b60005b838110156200031c578082015181840152602081019050620002ff565b838111156200032c576000848401525b50505050565b6000620003496200034384620002c6565b620002a7565b9050828152602081018484840111156200036857620003676200022c565b5b62000375848285620002fc565b509392505050565b600082601f83011262000395576200039462000227565b5b8151620003a784826020860162000332565b91505092915050565b60008060408385031215620003ca57620003c96200021d565b5b600083015167ffffffffffffffff811115620003eb57620003ea62000222565b5b620003f9858286016200037d565b925050602083015167ffffffffffffffff8111156200041d576200041c62000222565b5b6200042b858286016200037d565b9150509250929050565b7f4e487b7100000000000000000000000000000000000000000000000000000000600052602260045260246000fd5b600060028204905060018216806200047d57607f821691505b6020821081141562000494576200049362000435565b5b50919050565b612f4780620004aa6000396000f3fe608060405234801561001057600080fd5b506004361061012c5760003560e01c806370a08231116100ad578063a9059cbb11610071578063a9059cbb14610343578063b88d4fde1461035f578063c87b56dd1461037b578063e985e9c5146103ab578063f2fde38b146103db5761012c565b806370a08231146102b1578063715018a6146102e15780638da5cb5b146102eb57806395d89b4114610309578063a22cb465146103275761012c565b80631c8b45c3116100f45780631c8b45c3146101e957806323b872dd1461021957806342842e0e1461023557806342966c68146102515780636352211e146102815761012c565b806301ffc9a71461013157806306fdde0314610161578063081812fc1461017f578063095ea7b3146101af57806318160ddd146101cb575b600080fd5b61014b60048036038101906101469190611db3565b6103f7565b6040516101589190611dfb565b60405180910390f35b6101696104d9565b6040516101769190611eaf565b60405180910390f35b61019960048036038101906101949190611f07565b61056b565b6040516101a69190611f75565b60405180910390f35b6101c960048036038101906101c49190611fbc565b6105b1565b005b6101d36106c9565b6040516101e0919061200b565b60405180910390f35b61020360048036038101906101fe919061215b565b6106d3565b6040516102109190611dfb565b60405180910390f35b610233600480360381019061022e91906121b7565b610745565b005b61024f600480360381019061024a91906121b7565b6107a5565b005b61026b60048036038101906102669190611f07565b6107c5565b6040516102789190611dfb565b60405180910390f35b61029b60048036038101906102969190611f07565b610892565b6040516102a89190611f75565b60405180910390f35b6102cb60048036038101906102c6919061220a565b610919565b6040516102d8919061200b565b60405180910390f35b6102e96109d1565b005b6102f36109e5565b6040516103009190611f75565b60405180910390f35b610311610a0f565b60405161031e9190611eaf565b60405180910390f35b610341600480360381019061033c9190612263565b610aa1565b005b61035d60048036038101906103589190611fbc565b610ab7565b005b61037960048036038101906103749190612344565b610ac6565b005b61039560048036038101906103909190611f07565b610b28565b6040516103a29190611eaf565b60405180910390f35b6103c560048036038101906103c091906123c7565b610bb4565b6040516103d29190611dfb565b60405180910390f35b6103f560048036038101906103f0919061220a565b610c48565b005b60007f80ac58cd000000000000000000000000000000000000000000000000000000007bffffffffffffffffffffffffffffffffffffffffffffffffffffffff1916827bffffffffffffffffffffffffffffffffffffffffffffffffffffffff191614806104c257507f5b5e139f000000000000000000000000000000000000000000000000000000007bffffffffffffffffffffffffffffffffffffffffffffffffffffffff1916827bffffffffffffffffffffffffffffffffffffffffffffffffffffffff1916145b806104d257506104d182610ccc565b5b9050919050565b6060600080546104e890612436565b80601f016020809104026020016040519081016040528092919081815260200182805461051490612436565b80156105615780601f1061053657610100808354040283529160200191610561565b820191906000526020600020905b81548152906001019060200180831161054457829003601f168201915b5050505050905090565b600061057682610d36565b6004600083815260200190815260200160002060009054906101000a900473ffffffffffffffffffffffffffffffffffffffff169050919050565b60006105bc82610892565b90508073ffffffffffffffffffffffffffffffffffffffff168373ffffffffffffffffffffffffffffffffffffffff16141561062d576040517f08c379a0000000000000000000000000000000000000000000000000000000008152600401610624906124da565b60405180910390fd5b8073ffffffffffffffffffffffffffffffffffffffff1661064c610d81565b73ffffffffffffffffffffffffffffffffffffffff16148061067b575061067a81610675610d81565b610bb4565b5b6106ba576040517f08c379a00000000000000000000000000000000000000000000000000000000081526004016106b19061256c565b60405180910390fd5b6106c48383610d89565b505050565b6000600854905090565b6000600760008154809291906106e8906125bb565b9190505550826009600060075481526020019081526020016000209080519060200190610716929190611c64565b5061072382600754610e42565b60086000815480929190610736906125bb565b91905055506001905092915050565b610756610750610d81565b82610e60565b610795576040517f08c379a000000000000000000000000000000000000000000000000000000000815260040161078c90612676565b60405180910390fd5b6107a0838383610ef5565b505050565b6107c083838360405180602001604052806000815250610ac6565b505050565b60006107cf6111ef565b600073ffffffffffffffffffffffffffffffffffffffff166107f083610892565b73ffffffffffffffffffffffffffffffffffffffff161415610847576040517f08c379a000000000000000000000000000000000000000000000000000000000815260040161083e90612708565b60405180910390fd5b6108508261126d565b60096000838152602001908152602001600020600061086f9190611cea565b6001600860008282546108829190612728565b9250508190555060019050919050565b60008061089e836113bb565b9050600073ffffffffffffffffffffffffffffffffffffffff168173ffffffffffffffffffffffffffffffffffffffff161415610910576040517f08c379a0000000000000000000000000000000000000000000000000000000008152600401610907906127a8565b60405180910390fd5b80915050919050565b60008073ffffffffffffffffffffffffffffffffffffffff168273ffffffffffffffffffffffffffffffffffffffff16141561098a576040517f08c379a00000000000000000000000000000000000000000000000000000000081526004016109819061283a565b60405180910390fd5b600360008373ffffffffffffffffffffffffffffffffffffffff1673ffffffffffffffffffffffffffffffffffffffff168152602001908152602001600020549050919050565b6109d96111ef565b6109e360006113f8565b565b6000600660009054906101000a900473ffffffffffffffffffffffffffffffffffffffff16905090565b606060018054610a1e90612436565b80601f0160208091040260200160405190810160405280929190818152602001828054610a4a90612436565b8015610a975780601f10610a6c57610100808354040283529160200191610a97565b820191906000526020600020905b815481529060010190602001808311610a7a57829003601f168201915b5050505050905090565b610ab3610aac610d81565b83836114be565b5050565b610ac23383836107a5565b5050565b610ad7610ad1610d81565b83610e60565b610b16576040517f08c379a0000000000000000000000000000000000000000000000000000000008152600401610b0d90612676565b60405180910390fd5b610b228484848461162b565b50505050565b6060610b3382611687565b610b72576040517f08c379a0000000000000000000000000000000000000000000000000000000008152600401610b69906128cc565b60405180910390fd5b610b7a6116c8565b60096000848152602001908152602001600020604051602001610b9e9291906129bc565b6040516020818303038152906040529050919050565b6000600560008473ffffffffffffffffffffffffffffffffffffffff1673ffffffffffffffffffffffffffffffffffffffff16815260200190815260200160002060008373ffffffffffffffffffffffffffffffffffffffff1673ffffffffffffffffffffffffffffffffffffffff16815260200190815260200160002060009054906101000a900460ff16905092915050565b610c506111ef565b600073ffffffffffffffffffffffffffffffffffffffff168173ffffffffffffffffffffffffffffffffffffffff161415610cc0576040517f08c379a0000000000000000000000000000000000000000000000000000000008152600401610cb790612a52565b60405180910390fd5b610cc9816113f8565b50565b60007f01ffc9a7000000000000000000000000000000000000000000000000000000007bffffffffffffffffffffffffffffffffffffffffffffffffffffffff1916827bffffffffffffffffffffffffffffffffffffffffffffffffffffffff1916149050919050565b610d3f81611687565b610d7e576040517f08c379a0000000000000000000000000000000000000000000000000000000008152600401610d75906127a8565b60405180910390fd5b50565b600033905090565b816004600083815260200190815260200160002060006101000a81548173ffffffffffffffffffffffffffffffffffffffff021916908373ffffffffffffffffffffffffffffffffffffffff160217905550808273ffffffffffffffffffffffffffffffffffffffff16610dfc83610892565b73ffffffffffffffffffffffffffffffffffffffff167f8c5be1e5ebec7d5bd14f71427d1e84f3dd0314c0f7b2291e5b200ac8c7c3b92560405160405180910390a45050565b610e5c828260405180602001604052806000815250611705565b5050565b600080610e6c83610892565b90508073ffffffffffffffffffffffffffffffffffffffff168473ffffffffffffffffffffffffffffffffffffffff161480610eae5750610ead8185610bb4565b5b80610eec57508373ffffffffffffffffffffffffffffffffffffffff16610ed48461056b565b73ffffffffffffffffffffffffffffffffffffffff16145b91505092915050565b8273ffffffffffffffffffffffffffffffffffffffff16610f1582610892565b73ffffffffffffffffffffffffffffffffffffffff1614610f6b576040517f08c379a0000000000000000000000000000000000000000000000000000000008152600401610f6290612ae4565b60405180910390fd5b600073ffffffffffffffffffffffffffffffffffffffff168273ffffffffffffffffffffffffffffffffffffffff161415610fdb576040517f08c379a0000000000000000000000000000000000000000000000000000000008152600401610fd290612b76565b60405180910390fd5b610fe88383836001611760565b8273ffffffffffffffffffffffffffffffffffffffff1661100882610892565b73ffffffffffffffffffffffffffffffffffffffff161461105e576040517f08c379a000000000000000000000000000000000000000000000000000000000815260040161105590612ae4565b60405180910390fd5b6004600082815260200190815260200160002060006101000a81549073ffffffffffffffffffffffffffffffffffffffff02191690556001600360008573ffffffffffffffffffffffffffffffffffffffff1673ffffffffffffffffffffffffffffffffffffffff168152602001908152602001600020600082825403925050819055506001600360008473ffffffffffffffffffffffffffffffffffffffff1673ffffffffffffffffffffffffffffffffffffffff16815260200190815260200160002060008282540192505081905550816002600083815260200190815260200160002060006101000a81548173ffffffffffffffffffffffffffffffffffffffff021916908373ffffffffffffffffffffffffffffffffffffffff160217905550808273ffffffffffffffffffffffffffffffffffffffff168473ffffffffffffffffffffffffffffffffffffffff167fddf252ad1be2c89b69c2b068fc378daa952ba7f163c4a11628f55a4df523b3ef60405160405180910390a46111ea8383836001611886565b505050565b6111f7610d81565b73ffffffffffffffffffffffffffffffffffffffff166112156109e5565b73ffffffffffffffffffffffffffffffffffffffff161461126b576040517f08c379a000000000000000000000000000000000000000000000000000000000815260040161126290612be2565b60405180910390fd5b565b600061127882610892565b9050611288816000846001611760565b61129182610892565b90506004600083815260200190815260200160002060006101000a81549073ffffffffffffffffffffffffffffffffffffffff02191690556001600360008373ffffffffffffffffffffffffffffffffffffffff1673ffffffffffffffffffffffffffffffffffffffff168152602001908152602001600020600082825403925050819055506002600083815260200190815260200160002060006101000a81549073ffffffffffffffffffffffffffffffffffffffff021916905581600073ffffffffffffffffffffffffffffffffffffffff168273ffffffffffffffffffffffffffffffffffffffff167fddf252ad1be2c89b69c2b068fc378daa952ba7f163c4a11628f55a4df523b3ef60405160405180910390a46113b7816000846001611886565b5050565b60006002600083815260200190815260200160002060009054906101000a900473ffffffffffffffffffffffffffffffffffffffff169050919050565b6000600660009054906101000a900473ffffffffffffffffffffffffffffffffffffffff16905081600660006101000a81548173ffffffffffffffffffffffffffffffffffffffff021916908373ffffffffffffffffffffffffffffffffffffffff1602179055508173ffffffffffffffffffffffffffffffffffffffff168173ffffffffffffffffffffffffffffffffffffffff167f8be0079c531659141344cd1fd0a4f28419497f9722a3daafe3b4186f6b6457e060405160405180910390a35050565b8173ffffffffffffffffffffffffffffffffffffffff168373ffffffffffffffffffffffffffffffffffffffff16141561152d576040517f08c379a000000000000000000000000000000000000000000000000000000000815260040161152490612c4e565b60405180910390fd5b80600560008573ffffffffffffffffffffffffffffffffffffffff1673ffffffffffffffffffffffffffffffffffffffff16815260200190815260200160002060008473ffffffffffffffffffffffffffffffffffffffff1673ffffffffffffffffffffffffffffffffffffffff16815260200190815260200160002060006101000a81548160ff0219169083151502179055508173ffffffffffffffffffffffffffffffffffffffff168373ffffffffffffffffffffffffffffffffffffffff167f17307eab39ab6107e8899845ad3d59bd9653f200f220920489ca2b5937696c318360405161161e9190611dfb565b60405180910390a3505050565b611636848484610ef5565b6116428484848461188c565b611681576040517f08c379a000000000000000000000000000000000000000000000000000000000815260040161167890612ce0565b60405180910390fd5b50505050565b60008073ffffffffffffffffffffffffffffffffffffffff166116a9836113bb565b73ffffffffffffffffffffffffffffffffffffffff1614159050919050565b60606040518060400160405280601581526020017f68747470733a2f2f697066732e696f2f697066732f0000000000000000000000815250905090565b61170f8383611a23565b61171c600084848461188c565b61175b576040517f08c379a000000000000000000000000000000000000000000000000000000000815260040161175290612ce0565b60405180910390fd5b505050565b600181111561188057600073ffffffffffffffffffffffffffffffffffffffff168473ffffffffffffffffffffffffffffffffffffffff16146117f45780600360008673ffffffffffffffffffffffffffffffffffffffff1673ffffffffffffffffffffffffffffffffffffffff16815260200190815260200160002060008282546117ec9190612728565b925050819055505b600073ffffffffffffffffffffffffffffffffffffffff168373ffffffffffffffffffffffffffffffffffffffff161461187f5780600360008573ffffffffffffffffffffffffffffffffffffffff1673ffffffffffffffffffffffffffffffffffffffff16815260200190815260200160002060008282546118779190612d00565b925050819055505b5b50505050565b50505050565b60006118ad8473ffffffffffffffffffffffffffffffffffffffff16611c41565b15611a16578373ffffffffffffffffffffffffffffffffffffffff1663150b7a026118d6610d81565b8786866040518563ffffffff1660e01b81526004016118f89493929190612dab565b602060405180830381600087803b15801561191257600080fd5b505af192505050801561194357506040513d601f19601f820116820180604052508101906119409190612e0c565b60015b6119c6573d8060008114611973576040519150601f19603f3d011682016040523d82523d6000602084013e611978565b606091505b506000815114156119be576040517f08c379a00000000000000000000000000000000000000000000000000000000081526004016119b590612ce0565b60405180910390fd5b805181602001fd5b63150b7a0260e01b7bffffffffffffffffffffffffffffffffffffffffffffffffffffffff1916817bffffffffffffffffffffffffffffffffffffffffffffffffffffffff191614915050611a1b565b600190505b949350505050565b600073ffffffffffffffffffffffffffffffffffffffff168273ffffffffffffffffffffffffffffffffffffffff161415611a93576040517f08c379a0000000000000000000000000000000000000000000000000000000008152600401611a8a90612e85565b60405180910390fd5b611a9c81611687565b15611adc576040517f08c379a0000000000000000000000000000000000000000000000000000000008152600401611ad390612ef1565b60405180910390fd5b611aea600083836001611760565b611af381611687565b15611b33576040517f08c379a0000000000000000000000000000000000000000000000000000000008152600401611b2a90612ef1565b60405180910390fd5b6001600360008473ffffffffffffffffffffffffffffffffffffffff1673ffffffffffffffffffffffffffffffffffffffff16815260200190815260200160002060008282540192505081905550816002600083815260200190815260200160002060006101000a81548173ffffffffffffffffffffffffffffffffffffffff021916908373ffffffffffffffffffffffffffffffffffffffff160217905550808273ffffffffffffffffffffffffffffffffffffffff16600073ffffffffffffffffffffffffffffffffffffffff167fddf252ad1be2c89b69c2b068fc378daa952ba7f163c4a11628f55a4df523b3ef60405160405180910390a4611c3d600083836001611886565b5050565b6000808273ffffffffffffffffffffffffffffffffffffffff163b119050919050565b828054611c7090612436565b90600052602060002090601f016020900481019282611c925760008555611cd9565b82601f10611cab57805160ff1916838001178555611cd9565b82800160010185558215611cd9579182015b82811115611cd8578251825591602001919060010190611cbd565b5b509050611ce69190611d2a565b5090565b508054611cf690612436565b6000825580601f10611d085750611d27565b601f016020900490600052602060002090810190611d269190611d2a565b5b50565b5b80821115611d43576000816000905550600101611d2b565b5090565b6000604051905090565b600080fd5b600080fd5b60007fffffffff0000000000000000000000000000000000000000000000000000000082169050919050565b611d9081611d5b565b8114611d9b57600080fd5b50565b600081359050611dad81611d87565b92915050565b600060208284031215611dc957611dc8611d51565b5b6000611dd784828501611d9e565b91505092915050565b60008115159050919050565b611df581611de0565b82525050565b6000602082019050611e106000830184611dec565b92915050565b600081519050919050565b600082825260208201905092915050565b60005b83811015611e50578082015181840152602081019050611e35565b83811115611e5f576000848401525b50505050565b6000601f19601f8301169050919050565b6000611e8182611e16565b611e8b8185611e21565b9350611e9b818560208601611e32565b611ea481611e65565b840191505092915050565b60006020820190508181036000830152611ec98184611e76565b905092915050565b6000819050919050565b611ee481611ed1565b8114611eef57600080fd5b50565b600081359050611f0181611edb565b92915050565b600060208284031215611f1d57611f1c611d51565b5b6000611f2b84828501611ef2565b91505092915050565b600073ffffffffffffffffffffffffffffffffffffffff82169050919050565b6000611f5f82611f34565b9050919050565b611f6f81611f54565b82525050565b6000602082019050611f8a6000830184611f66565b92915050565b611f9981611f54565b8114611fa457600080fd5b50565b600081359050611fb681611f90565b92915050565b60008060408385031215611fd357611fd2611d51565b5b6000611fe185828601611fa7565b9250506020611ff285828601611ef2565b9150509250929050565b61200581611ed1565b82525050565b60006020820190506120206000830184611ffc565b92915050565b600080fd5b600080fd5b7f4e487b7100000000000000000000000000000000000000000000000000000000600052604160045260246000fd5b61206882611e65565b810181811067ffffffffffffffff8211171561208757612086612030565b5b80604052505050565b600061209a611d47565b90506120a6828261205f565b919050565b600067ffffffffffffffff8211156120c6576120c5612030565b5b6120cf82611e65565b9050602081019050919050565b82818337600083830152505050565b60006120fe6120f9846120ab565b612090565b90508281526020810184848401111561211a5761211961202b565b5b6121258482856120dc565b509392505050565b600082601f83011261214257612141612026565b5b81356121528482602086016120eb565b91505092915050565b6000806040838503121561217257612171611d51565b5b600083013567ffffffffffffffff8111156121905761218f611d56565b5b61219c8582860161212d565b92505060206121ad85828601611fa7565b9150509250929050565b6000806000606084860312156121d0576121cf611d51565b5b60006121de86828701611fa7565b93505060206121ef86828701611fa7565b925050604061220086828701611ef2565b9150509250925092565b6000602082840312156122205761221f611d51565b5b600061222e84828501611fa7565b91505092915050565b61224081611de0565b811461224b57600080fd5b50565b60008135905061225d81612237565b92915050565b6000806040838503121561227a57612279611d51565b5b600061228885828601611fa7565b92505060206122998582860161224e565b9150509250929050565b600067ffffffffffffffff8211156122be576122bd612030565b5b6122c782611e65565b9050602081019050919050565b60006122e76122e2846122a3565b612090565b9050828152602081018484840111156123035761230261202b565b5b61230e8482856120dc565b509392505050565b600082601f83011261232b5761232a612026565b5b813561233b8482602086016122d4565b91505092915050565b6000806000806080858703121561235e5761235d611d51565b5b600061236c87828801611fa7565b945050602061237d87828801611fa7565b935050604061238e87828801611ef2565b925050606085013567ffffffffffffffff8111156123af576123ae611d56565b5b6123bb87828801612316565b91505092959194509250565b600080604083850312156123de576123dd611d51565b5b60006123ec85828601611fa7565b92505060206123fd85828601611fa7565b9150509250929050565b7f4e487b7100000000000000000000000000000000000000000000000000000000600052602260045260246000fd5b6000600282049050600182168061244e57607f821691505b6020821081141561246257612461612407565b5b50919050565b7f4552433732313a20617070726f76616c20746f2063757272656e74206f776e6560008201527f7200000000000000000000000000000000000000000000000000000000000000602082015250565b60006124c4602183611e21565b91506124cf82612468565b604082019050919050565b600060208201905081810360008301526124f3816124b7565b9050919050565b7f4552433732313a20617070726f76652063616c6c6572206973206e6f7420746f60008201527f6b656e206f776e6572206f7220617070726f76656420666f7220616c6c000000602082015250565b6000612556603d83611e21565b9150612561826124fa565b604082019050919050565b6000602082019050818103600083015261258581612549565b9050919050565b7f4e487b7100000000000000000000000000000000000000000000000000000000600052601160045260246000fd5b60006125c682611ed1565b91507fffffffffffffffffffffffffffffffffffffffffffffffffffffffffffffffff8214156125f9576125f861258c565b5b600182019050919050565b7f4552433732313a2063616c6c6572206973206e6f7420746f6b656e206f776e6560008201527f72206f7220617070726f76656400000000000000000000000000000000000000602082015250565b6000612660602d83611e21565b915061266b82612604565b604082019050919050565b6000602082019050818103600083015261268f81612653565b9050919050565b7f4552433732313a206f776e657220717565727920666f72206e6f6e657869737460008201527f656e7420746f6b656e0000000000000000000000000000000000000000000000602082015250565b60006126f2602983611e21565b91506126fd82612696565b604082019050919050565b60006020820190508181036000830152612721816126e5565b9050919050565b600061273382611ed1565b915061273e83611ed1565b9250828210156127515761275061258c565b5b828203905092915050565b7f4552433732313a20696e76616c696420746f6b656e2049440000000000000000600082015250565b6000612792601883611e21565b915061279d8261275c565b602082019050919050565b600060208201905081810360008301526127c181612785565b9050919050565b7f4552433732313a2061646472657373207a65726f206973206e6f74206120766160008201527f6c6964206f776e65720000000000000000000000000000000000000000000000602082015250565b6000612824602983611e21565b915061282f826127c8565b604082019050919050565b6000602082019050818103600083015261285381612817565b9050919050565b7f4552433732314d657461646174613a2055524920717565727920666f72206e6f60008201527f6e6578697374656e7420746f6b656e0000000000000000000000000000000000602082015250565b60006128b6602f83611e21565b91506128c18261285a565b604082019050919050565b600060208201905081810360008301526128e5816128a9565b9050919050565b600081905092915050565b600061290282611e16565b61290c81856128ec565b935061291c818560208601611e32565b80840191505092915050565b60008190508160005260206000209050919050565b6000815461294a81612436565b61295481866128ec565b9450600182166000811461296f5760018114612980576129b3565b60ff198316865281860193506129b3565b61298985612928565b60005b838110156129ab5781548189015260018201915060208101905061298c565b838801955050505b50505092915050565b60006129c882856128f7565b91506129d4828461293d565b91508190509392505050565b7f4f776e61626c653a206e6577206f776e657220697320746865207a65726f206160008201527f6464726573730000000000000000000000000000000000000000000000000000602082015250565b6000612a3c602683611e21565b9150612a47826129e0565b604082019050919050565b60006020820190508181036000830152612a6b81612a2f565b9050919050565b7f4552433732313a207472616e736665722066726f6d20696e636f72726563742060008201527f6f776e6572000000000000000000000000000000000000000000000000000000602082015250565b6000612ace602583611e21565b9150612ad982612a72565b604082019050919050565b60006020820190508181036000830152612afd81612ac1565b9050919050565b7f4552433732313a207472616e7366657220746f20746865207a65726f2061646460008201527f7265737300000000000000000000000000000000000000000000000000000000602082015250565b6000612b60602483611e21565b9150612b6b82612b04565b604082019050919050565b60006020820190508181036000830152612b8f81612b53565b9050919050565b7f4f776e61626c653a2063616c6c6572206973206e6f7420746865206f776e6572600082015250565b6000612bcc602083611e21565b9150612bd782612b96565b602082019050919050565b60006020820190508181036000830152612bfb81612bbf565b9050919050565b7f4552433732313a20617070726f766520746f2063616c6c657200000000000000600082015250565b6000612c38601983611e21565b9150612c4382612c02565b602082019050919050565b60006020820190508181036000830152612c6781612c2b565b9050919050565b7f4552433732313a207472616e7366657220746f206e6f6e20455243373231526560008201527f63656976657220696d706c656d656e7465720000000000000000000000000000602082015250565b6000612cca603283611e21565b9150612cd582612c6e565b604082019050919050565b60006020820190508181036000830152612cf981612cbd565b9050919050565b6000612d0b82611ed1565b9150612d1683611ed1565b9250827fffffffffffffffffffffffffffffffffffffffffffffffffffffffffffffffff03821115612d4b57612d4a61258c565b5b828201905092915050565b600081519050919050565b600082825260208201905092915050565b6000612d7d82612d56565b612d878185612d61565b9350612d97818560208601611e32565b612da081611e65565b840191505092915050565b6000608082019050612dc06000830187611f66565b612dcd6020830186611f66565b612dda6040830185611ffc565b8181036060830152612dec8184612d72565b905095945050505050565b600081519050612e0681611d87565b92915050565b600060208284031215612e2257612e21611d51565b5b6000612e3084828501612df7565b91505092915050565b7f4552433732313a206d696e7420746f20746865207a65726f2061646472657373600082015250565b6000612e6f602083611e21565b9150612e7a82612e39565b602082019050919050565b60006020820190508181036000830152612e9e81612e62565b9050919050565b7f4552433732313a20746f6b656e20616c7265616479206d696e74656400000000600082015250565b6000612edb601c83611e21565b9150612ee682612ea5565b602082019050919050565b60006020820190508181036000830152612f0a81612ece565b905091905056fea2646970667358221220018db9bc4e91ed9d4d0278d8752eeaa920aec8479a02a2afc20241c33920954364736f6c63430008090033",
  "linkReferences": {},
  "deployedLinkReferences": {}
}