{
  "_format": "hh-sol-artifact-1",
  "contractName": "InvoiceSigner",
  "sourceName": "contracts/paymentSettlement.sol",
  "abi": [
    {
      "inputs": [
        {
          "internalType": "uint256",
          "name": "invoiceId",
          "type": "uint256"
        }
      ],
      "name": "findInvoiceById",
      "outputs": [
        {
          "internalType": "uint256",
          "name": "",
          "type": "uint256"
        },
        {
          "internalType": "uint256",
          "name": "",
          "type": "uint256"
        },
        {
          "internalType": "uint256",
          "name": "",
          "type": "uint256"
        },
        {
          "internalType": "uint256",
          "name": "",
          "type": "uint256"
        },
        {
          "internalType": "string",
          "name": "",
          "type": "string"
        },
        {
          "internalType": "address",
          "name": "",
          "type": "address"
        },
        {
          "internalType": "string",
          "name": "",
          "type": "string"
        }
      ],
      "stateMutability": "view",
      "type": "function"
    }
  ],
  "bytecode": "0x608060405234801561001057600080fd5b50610281806100206000396000f3fe608060405234801561001057600080fd5b506004361061002b5760003560e01c8063d9cf6d7314610030575b600080fd5b61004a600480360381019061004591906100b8565b610066565b60405161005d97969594939291906101ce565b60405180910390f35b600080600080606060006060919395979092949650565b600080fd5b6000819050919050565b61009581610082565b81146100a057600080fd5b50565b6000813590506100b28161008c565b92915050565b6000602082840312156100ce576100cd61007d565b5b60006100dc848285016100a3565b91505092915050565b6100ee81610082565b82525050565b600081519050919050565b600082825260208201905092915050565b60005b8381101561012e578082015181840152602081019050610113565b8381111561013d576000848401525b50505050565b6000601f19601f8301169050919050565b600061015f826100f4565b61016981856100ff565b9350610179818560208601610110565b61018281610143565b840191505092915050565b600073ffffffffffffffffffffffffffffffffffffffff82169050919050565b60006101b88261018d565b9050919050565b6101c8816101ad565b82525050565b600060e0820190506101e3600083018a6100e5565b6101f060208301896100e5565b6101fd60408301886100e5565b61020a60608301876100e5565b818103608083015261021c8186610154565b905061022b60a08301856101bf565b81810360c083015261023d8184610154565b90509897505050505050505056fea26469706673582212200f8d6e069dc8d1a354c1a11b6cf7b3eca2e70526546e196b7531089ccda1503164736f6c63430008090033",
  "linkReferences": {},
  "deployedLinkReferences": {}
}