{
  "_format": "hh-sol-artifact-1",
  "contractName": "SendEther",
  "sourceName": "contracts/paymentSettlement.sol",
  "abi": [
    {
      "inputs": [
        {
          "internalType": "address",
          "name": "_nftContractAddress",
          "type": "address"
        },
        {
          "internalType": "address",
          "name": "_invoiceAddress",
          "type": "address"
        }
      ],
      "stateMutability": "nonpayable",
      "type": "constructor"
    },
    {
      "inputs": [],
      "name": "invoiceAddress",
      "outputs": [
        {
          "internalType": "address",
          "name": "",
          "type": "address"
        }
      ],
      "stateMutability": "view",
      "type": "function"
    },
    {
      "inputs": [],
      "name": "nftContractAddress",
      "outputs": [
        {
          "internalType": "address",
          "name": "",
          "type": "address"
        }
      ],
      "stateMutability": "view",
      "type": "function"
    },
    {
      "inputs": [
        {
          "internalType": "uint256",
          "name": "tokenId",
          "type": "uint256"
        }
      ],
      "name": "sendViaCall",
      "outputs": [],
      "stateMutability": "payable",
      "type": "function"
    }
  ],
  "bytecode": "0x608060405234801561001057600080fd5b506040516109323803806109328339818101604052810190610032919061011d565b816000806101000a81548173ffffffffffffffffffffffffffffffffffffffff021916908373ffffffffffffffffffffffffffffffffffffffff16021790555080600160006101000a81548173ffffffffffffffffffffffffffffffffffffffff021916908373ffffffffffffffffffffffffffffffffffffffff160217905550505061015d565b600080fd5b600073ffffffffffffffffffffffffffffffffffffffff82169050919050565b60006100ea826100bf565b9050919050565b6100fa816100df565b811461010557600080fd5b50565b600081519050610117816100f1565b92915050565b60008060408385031215610134576101336100ba565b5b600061014285828601610108565b925050602061015385828601610108565b9150509250929050565b6107c68061016c6000396000f3fe6080604052600436106100345760003560e01c8063aae282e114610039578063d2cdc9c514610064578063f908b56914610080575b600080fd5b34801561004557600080fd5b5061004e6100ab565b60405161005b919061035f565b60405180910390f35b61007e600480360381019061007991906103c4565b6100cf565b005b34801561008c57600080fd5b506100956102f8565b6040516100a2919061035f565b60405180910390f35b60008054906101000a900473ffffffffffffffffffffffffffffffffffffffff1681565b6000600160009054906101000a900473ffffffffffffffffffffffffffffffffffffffff16905060008060009054906101000a900473ffffffffffffffffffffffffffffffffffffffff16905060008273ffffffffffffffffffffffffffffffffffffffff1663d9cf6d73856040518263ffffffff1660e01b81526004016101579190610400565b60006040518083038186803b15801561016f57600080fd5b505afa158015610183573d6000803e3d6000fd5b505050506040513d6000823e3d601f19601f820116820180604052508101906101ac91906105c6565b505050509250505060008273ffffffffffffffffffffffffffffffffffffffff16636352211e866040518263ffffffff1660e01b81526004016101ef9190610400565b60206040518083038186803b15801561020757600080fd5b505afa15801561021b573d6000803e3d6000fd5b505050506040513d601f19601f8201168201806040525081019061023f91906106a0565b90506000808273ffffffffffffffffffffffffffffffffffffffff1684604051610268906106fe565b60006040518083038185875af1925050503d80600081146102a5576040519150601f19603f3d011682016040523d82523d6000602084013e6102aa565b606091505b5091509150816102ef576040517f08c379a00000000000000000000000000000000000000000000000000000000081526004016102e690610770565b60405180910390fd5b50505050505050565b600160009054906101000a900473ffffffffffffffffffffffffffffffffffffffff1681565b600073ffffffffffffffffffffffffffffffffffffffff82169050919050565b60006103498261031e565b9050919050565b6103598161033e565b82525050565b60006020820190506103746000830184610350565b92915050565b6000604051905090565b600080fd5b600080fd5b6000819050919050565b6103a18161038e565b81146103ac57600080fd5b50565b6000813590506103be81610398565b92915050565b6000602082840312156103da576103d9610384565b5b60006103e8848285016103af565b91505092915050565b6103fa8161038e565b82525050565b600060208201905061041560008301846103f1565b92915050565b60008151905061042a81610398565b92915050565b600080fd5b600080fd5b6000601f19601f8301169050919050565b7f4e487b7100000000000000000000000000000000000000000000000000000000600052604160045260246000fd5b6104838261043a565b810181811067ffffffffffffffff821117156104a2576104a161044b565b5b80604052505050565b60006104b561037a565b90506104c1828261047a565b919050565b600067ffffffffffffffff8211156104e1576104e061044b565b5b6104ea8261043a565b9050602081019050919050565b60005b838110156105155780820151818401526020810190506104fa565b83811115610524576000848401525b50505050565b600061053d610538846104c6565b6104ab565b90508281526020810184848401111561055957610558610435565b5b6105648482856104f7565b509392505050565b600082601f83011261058157610580610430565b5b815161059184826020860161052a565b91505092915050565b6105a38161033e565b81146105ae57600080fd5b50565b6000815190506105c08161059a565b92915050565b600080600080600080600060e0888a0312156105e5576105e4610384565b5b60006105f38a828b0161041b565b97505060206106048a828b0161041b565b96505060406106158a828b0161041b565b95505060606106268a828b0161041b565b945050608088015167ffffffffffffffff81111561064757610646610389565b5b6106538a828b0161056c565b93505060a06106648a828b016105b1565b92505060c088015167ffffffffffffffff81111561068557610684610389565b5b6106918a828b0161056c565b91505092959891949750929550565b6000602082840312156106b6576106b5610384565b5b60006106c4848285016105b1565b91505092915050565b600081905092915050565b50565b60006106e86000836106cd565b91506106f3826106d8565b600082019050919050565b6000610709826106db565b9150819050919050565b600082825260208201905092915050565b7f4661696c656420746f2073656e64204574686572000000000000000000000000600082015250565b600061075a601483610713565b915061076582610724565b602082019050919050565b600060208201905081810360008301526107898161074d565b905091905056fea264697066735822122049a1e1bb3281c0eaafba7a4bfef0a6e5330e0d2026e15f3049ea8ab1ebd98db164736f6c63430008090033",
  "linkReferences": {},
  "deployedLinkReferences": {}
}