{
  "_format": "hh-sol-artifact-1",
  "contractName": "VoiceToken",
  "sourceName": "contracts/paymentSettlement.sol",
  "abi": [
    {
      "inputs": [
        {
          "internalType": "uint256",
          "name": "tokenId",
          "type": "uint256"
        }
      ],
      "name": "ownerOf",
      "outputs": [
        {
          "internalType": "address",
          "name": "",
          "type": "address"
        }
      ],
      "stateMutability": "view",
      "type": "function"
    }
  ],
  "bytecode": "0x608060405234801561001057600080fd5b50610161806100206000396000f3fe608060405234801561001057600080fd5b506004361061002b5760003560e01c80636352211e14610030575b600080fd5b61004a600480360381019061004591906100a2565b610060565b6040516100579190610110565b60405180910390f35b6000919050565b600080fd5b6000819050919050565b61007f8161006c565b811461008a57600080fd5b50565b60008135905061009c81610076565b92915050565b6000602082840312156100b8576100b7610067565b5b60006100c68482850161008d565b91505092915050565b600073ffffffffffffffffffffffffffffffffffffffff82169050919050565b60006100fa826100cf565b9050919050565b61010a816100ef565b82525050565b60006020820190506101256000830184610101565b9291505056fea264697066735822122031faac7ef183b408c7c16a6c86e8f97a5d7835d1deb589ae3eb0f389f87ee80964736f6c63430008090033",
  "linkReferences": {},
  "deployedLinkReferences": {}
}